{
  "_format": "hh-sol-artifact-1",
  "contractName": "ScoreBoard",
  "sourceName": "contracts/ScoreBoard.sol",
  "abi": [
    {
      "anonymous": false,
      "inputs": [
        {
          "indexed": true,
          "internalType": "uint256",
          "name": "tournamentId",
          "type": "uint256"
        },
        {
          "indexed": true,
          "internalType": "uint256",
          "name": "matchId",
          "type": "uint256"
        },
        {
          "indexed": true,
          "internalType": "address",
          "name": "winner",
          "type": "address"
        },
        {
          "indexed": false,
          "internalType": "address",
          "name": "player1",
          "type": "address"
        },
        {
          "indexed": false,
          "internalType": "address",
          "name": "player2",
          "type": "address"
        },
        {
          "indexed": false,
          "internalType": "uint256",
          "name": "player1Score",
          "type": "uint256"
        },
        {
          "indexed": false,
          "internalType": "uint256",
          "name": "player2Score",
          "type": "uint256"
        },
        {
          "indexed": false,
          "internalType": "uint256",
          "name": "timestamp",
          "type": "uint256"
        }
      ],
      "name": "MatchPosted",
      "type": "event"
    },
    {
      "inputs": [
        {
          "internalType": "uint256",
          "name": "idx",
          "type": "uint256"
        }
      ],
      "name": "getMatch",
      "outputs": [
        {
          "components": [
            {
              "internalType": "uint256",
              "name": "tournamentId",
              "type": "uint256"
            },
            {
              "internalType": "uint256",
              "name": "matchId",
              "type": "uint256"
            },
            {
              "internalType": "address",
              "name": "player1",
              "type": "address"
            },
            {
              "internalType": "address",
              "name": "player2",
              "type": "address"
            },
            {
              "internalType": "uint256",
              "name": "player1Score",
              "type": "uint256"
            },
            {
              "internalType": "uint256",
              "name": "player2Score",
              "type": "uint256"
            },
            {
              "internalType": "address",
              "name": "winner",
              "type": "address"
            },
            {
              "internalType": "uint256",
              "name": "timestamp",
              "type": "uint256"
            }
          ],
          "internalType": "struct ScoreBoard.Match",
          "name": "",
          "type": "tuple"
        }
      ],
      "stateMutability": "view",
      "type": "function"
    },
    {
      "inputs": [],
      "name": "getMatchCount",
      "outputs": [
        {
          "internalType": "uint256",
          "name": "",
          "type": "uint256"
        }
      ],
      "stateMutability": "view",
      "type": "function"
    },
    {
      "inputs": [
        {
          "internalType": "uint256",
          "name": "",
          "type": "uint256"
        }
      ],
      "name": "matches",
      "outputs": [
        {
          "internalType": "uint256",
          "name": "tournamentId",
          "type": "uint256"
        },
        {
          "internalType": "uint256",
          "name": "matchId",
          "type": "uint256"
        },
        {
          "internalType": "address",
          "name": "player1",
          "type": "address"
        },
        {
          "internalType": "address",
          "name": "player2",
          "type": "address"
        },
        {
          "internalType": "uint256",
          "name": "player1Score",
          "type": "uint256"
        },
        {
          "internalType": "uint256",
          "name": "player2Score",
          "type": "uint256"
        },
        {
          "internalType": "address",
          "name": "winner",
          "type": "address"
        },
        {
          "internalType": "uint256",
          "name": "timestamp",
          "type": "uint256"
        }
      ],
      "stateMutability": "view",
      "type": "function"
    },
    {
      "inputs": [
        {
          "internalType": "uint256",
          "name": "tournamentId",
          "type": "uint256"
        },
        {
          "internalType": "uint256",
          "name": "matchId",
          "type": "uint256"
        },
        {
          "internalType": "address",
          "name": "player1",
          "type": "address"
        },
        {
          "internalType": "address",
          "name": "player2",
          "type": "address"
        },
        {
          "internalType": "uint256",
          "name": "player1Score",
          "type": "uint256"
        },
        {
          "internalType": "uint256",
          "name": "player2Score",
          "type": "uint256"
        },
        {
          "internalType": "address",
          "name": "winner",
          "type": "address"
        }
      ],
      "name": "postMatchResult",
      "outputs": [],
      "stateMutability": "nonpayable",
      "type": "function"
    }
  ],
  "bytecode": "0x608060405234801561001057600080fd5b50610978806100206000396000f3fe608060405234801561001057600080fd5b506004361061004c5760003560e01c80633d092b3d146100515780634768d4ef146100815780638c4f7dae146100b8578063b456abf0146100d6575b600080fd5b61006b60048036038101906100669190610600565b6100f2565b604051610078919061071f565b60405180910390f35b61009b60048036038101906100969190610600565b610263565b6040516100af989796959493929190610759565b60405180910390f35b6100c061031b565b6040516100cd91906107d7565b60405180910390f35b6100f060048036038101906100eb919061081e565b610327565b005b6100fa61053e565b6000828154811061010e5761010d6108c0565b5b90600052602060002090600802016040518061010001604052908160008201548152602001600182015481526020016002820160009054906101000a900473ffffffffffffffffffffffffffffffffffffffff1673ffffffffffffffffffffffffffffffffffffffff1673ffffffffffffffffffffffffffffffffffffffff1681526020016003820160009054906101000a900473ffffffffffffffffffffffffffffffffffffffff1673ffffffffffffffffffffffffffffffffffffffff1673ffffffffffffffffffffffffffffffffffffffff16815260200160048201548152602001600582015481526020016006820160009054906101000a900473ffffffffffffffffffffffffffffffffffffffff1673ffffffffffffffffffffffffffffffffffffffff1673ffffffffffffffffffffffffffffffffffffffff1681526020016007820154815250509050919050565b6000818154811061027357600080fd5b90600052602060002090600802016000915090508060000154908060010154908060020160009054906101000a900473ffffffffffffffffffffffffffffffffffffffff16908060030160009054906101000a900473ffffffffffffffffffffffffffffffffffffffff16908060040154908060050154908060060160009054906101000a900473ffffffffffffffffffffffffffffffffffffffff16908060070154905088565b60008080549050905090565b60006040518061010001604052808981526020018881526020018773ffffffffffffffffffffffffffffffffffffffff1681526020018673ffffffffffffffffffffffffffffffffffffffff1681526020018581526020018481526020018373ffffffffffffffffffffffffffffffffffffffff1681526020014281525090506000819080600181540180825580915050600190039060005260206000209060080201600090919091909150600082015181600001556020820151816001015560408201518160020160006101000a81548173ffffffffffffffffffffffffffffffffffffffff021916908373ffffffffffffffffffffffffffffffffffffffff16021790555060608201518160030160006101000a81548173ffffffffffffffffffffffffffffffffffffffff021916908373ffffffffffffffffffffffffffffffffffffffff1602179055506080820151816004015560a0820151816005015560c08201518160060160006101000a81548173ffffffffffffffffffffffffffffffffffffffff021916908373ffffffffffffffffffffffffffffffffffffffff16021790555060e0820151816007015550508173ffffffffffffffffffffffffffffffffffffffff1687897fbf7a0aa1f52d4c4915767327ff4e8be01c8ab8a173a3273d33dae31bfcf6e5dc898989894260405161052c9594939291906108ef565b60405180910390a45050505050505050565b6040518061010001604052806000815260200160008152602001600073ffffffffffffffffffffffffffffffffffffffff168152602001600073ffffffffffffffffffffffffffffffffffffffff1681526020016000815260200160008152602001600073ffffffffffffffffffffffffffffffffffffffff168152602001600081525090565b600080fd5b6000819050919050565b6105dd816105ca565b81146105e857600080fd5b50565b6000813590506105fa816105d4565b92915050565b600060208284031215610616576106156105c5565b5b6000610624848285016105eb565b91505092915050565b610636816105ca565b82525050565b600073ffffffffffffffffffffffffffffffffffffffff82169050919050565b60006106678261063c565b9050919050565b6106778161065c565b82525050565b61010082016000820151610694600085018261062d565b5060208201516106a7602085018261062d565b5060408201516106ba604085018261066e565b5060608201516106cd606085018261066e565b5060808201516106e0608085018261062d565b5060a08201516106f360a085018261062d565b5060c082015161070660c085018261066e565b5060e082015161071960e085018261062d565b50505050565b600061010082019050610735600083018461067d565b92915050565b610744816105ca565b82525050565b6107538161065c565b82525050565b60006101008201905061076f600083018b61073b565b61077c602083018a61073b565b610789604083018961074a565b610796606083018861074a565b6107a3608083018761073b565b6107b060a083018661073b565b6107bd60c083018561074a565b6107ca60e083018461073b565b9998505050505050505050565b60006020820190506107ec600083018461073b565b92915050565b6107fb8161065c565b811461080657600080fd5b50565b600081359050610818816107f2565b92915050565b600080600080600080600060e0888a03121561083d5761083c6105c5565b5b600061084b8a828b016105eb565b975050602061085c8a828b016105eb565b965050604061086d8a828b01610809565b955050606061087e8a828b01610809565b945050608061088f8a828b016105eb565b93505060a06108a08a828b016105eb565b92505060c06108b18a828b01610809565b91505092959891949750929550565b7f4e487b7100000000000000000000000000000000000000000000000000000000600052603260045260246000fd5b600060a082019050610904600083018861074a565b610911602083018761074a565b61091e604083018661073b565b61092b606083018561073b565b610938608083018461073b565b969550505050505056fea26469706673582212208242e25b217a1ee47062b1f7760e7103a08d9b79c7265b42201286aab770f3e164736f6c63430008130033",
  "linkReferences": {},
  "deployedLinkReferences": {}
}