{
  "_format": "hh-sol-artifact-1",
  "contractName": "ScoreBoard",
  "sourceName": "contracts/ScoreBoard.sol",
  "abi": [
    {
      "anonymous": false,
      "inputs": [
        {
          "indexed": false,
          "internalType": "uint256",
          "name": "tournamentId",
          "type": "uint256"
        },
        {
          "indexed": false,
          "internalType": "uint256",
          "name": "matchId",
          "type": "uint256"
        },
        {
          "indexed": false,
          "internalType": "uint256",
          "name": "winnerId",
          "type": "uint256"
        },
        {
          "indexed": false,
          "internalType": "uint256",
          "name": "player1Id",
          "type": "uint256"
        },
        {
          "indexed": false,
          "internalType": "uint256",
          "name": "player2Id",
          "type": "uint256"
        },
        {
          "indexed": false,
          "internalType": "uint256",
          "name": "player1Score",
          "type": "uint256"
        },
        {
          "indexed": false,
          "internalType": "uint256",
          "name": "player2Score",
          "type": "uint256"
        },
        {
          "indexed": false,
          "internalType": "uint256",
          "name": "timestamp",
          "type": "uint256"
        }
      ],
      "name": "MatchPosted",
      "type": "event"
    },
    {
      "inputs": [
        {
          "internalType": "uint256",
          "name": "idx",
          "type": "uint256"
        }
      ],
      "name": "getMatch",
      "outputs": [
        {
          "components": [
            {
              "internalType": "uint256",
              "name": "tournamentId",
              "type": "uint256"
            },
            {
              "internalType": "uint256",
              "name": "matchId",
              "type": "uint256"
            },
            {
              "internalType": "uint256",
              "name": "player1Id",
              "type": "uint256"
            },
            {
              "internalType": "uint256",
              "name": "player2Id",
              "type": "uint256"
            },
            {
              "internalType": "uint256",
              "name": "player1Score",
              "type": "uint256"
            },
            {
              "internalType": "uint256",
              "name": "player2Score",
              "type": "uint256"
            },
            {
              "internalType": "uint256",
              "name": "winnerId",
              "type": "uint256"
            },
            {
              "internalType": "uint256",
              "name": "timestamp",
              "type": "uint256"
            }
          ],
          "internalType": "struct ScoreBoard.Match",
          "name": "",
          "type": "tuple"
        }
      ],
      "stateMutability": "view",
      "type": "function"
    },
    {
      "inputs": [],
      "name": "getMatchCount",
      "outputs": [
        {
          "internalType": "uint256",
          "name": "",
          "type": "uint256"
        }
      ],
      "stateMutability": "view",
      "type": "function"
    },
    {
      "inputs": [
        {
          "internalType": "uint256",
          "name": "",
          "type": "uint256"
        }
      ],
      "name": "matches",
      "outputs": [
        {
          "internalType": "uint256",
          "name": "tournamentId",
          "type": "uint256"
        },
        {
          "internalType": "uint256",
          "name": "matchId",
          "type": "uint256"
        },
        {
          "internalType": "uint256",
          "name": "player1Id",
          "type": "uint256"
        },
        {
          "internalType": "uint256",
          "name": "player2Id",
          "type": "uint256"
        },
        {
          "internalType": "uint256",
          "name": "player1Score",
          "type": "uint256"
        },
        {
          "internalType": "uint256",
          "name": "player2Score",
          "type": "uint256"
        },
        {
          "internalType": "uint256",
          "name": "winnerId",
          "type": "uint256"
        },
        {
          "internalType": "uint256",
          "name": "timestamp",
          "type": "uint256"
        }
      ],
      "stateMutability": "view",
      "type": "function"
    },
    {
      "inputs": [
        {
          "internalType": "uint256",
          "name": "tournamentId",
          "type": "uint256"
        },
        {
          "internalType": "uint256",
          "name": "matchId",
          "type": "uint256"
        },
        {
          "internalType": "uint256",
          "name": "player1Id",
          "type": "uint256"
        },
        {
          "internalType": "uint256",
          "name": "player2Id",
          "type": "uint256"
        },
        {
          "internalType": "uint256",
          "name": "player1Score",
          "type": "uint256"
        },
        {
          "internalType": "uint256",
          "name": "player2Score",
          "type": "uint256"
        },
        {
          "internalType": "uint256",
          "name": "winnerId",
          "type": "uint256"
        }
      ],
      "name": "postMatchResult",
      "outputs": [],
      "stateMutability": "nonpayable",
      "type": "function"
    }
  ],
  "bytecode": "0x608060405234801561001057600080fd5b50610617806100206000396000f3fe608060405234801561001057600080fd5b506004361061004c5760003560e01c80633d092b3d146100515780634768d4ef146100815780636220ecfc146100b85780638c4f7dae146100d4575b600080fd5b61006b6004803603810190610066919061036e565b6100f2565b604051610078919061044c565b60405180910390f35b61009b6004803603810190610096919061036e565b61017f565b6040516100af989796959493929190610477565b60405180910390f35b6100d260048036038101906100cd91906104f5565b6101d7565b005b6100dc6102e2565b6040516100e99190610597565b60405180910390f35b6100fa6102ee565b6000828154811061010e5761010d6105b2565b5b906000526020600020906008020160405180610100016040529081600082015481526020016001820154815260200160028201548152602001600382015481526020016004820154815260200160058201548152602001600682015481526020016007820154815250509050919050565b6000818154811061018f57600080fd5b90600052602060002090600802016000915090508060000154908060010154908060020154908060030154908060040154908060050154908060060154908060070154905088565b60006040518061010001604052808981526020018881526020018781526020018681526020018581526020018481526020018381526020014281525090506000819080600181540180825580915050600190039060005260206000209060080201600090919091909150600082015181600001556020820151816001015560408201518160020155606082015181600301556080820151816004015560a0820151816005015560c0820151816006015560e0820151816007015550507f9e18ffef2f18bc8881648912a85950122379b946fbeb5822841ddb3f73b87ecc88888489898989426040516102d0989796959493929190610477565b60405180910390a15050505050505050565b60008080549050905090565b60405180610100016040528060008152602001600081526020016000815260200160008152602001600081526020016000815260200160008152602001600081525090565b600080fd5b6000819050919050565b61034b81610338565b811461035657600080fd5b50565b60008135905061036881610342565b92915050565b60006020828403121561038457610383610333565b5b600061039284828501610359565b91505092915050565b6103a481610338565b82525050565b610100820160008201516103c1600085018261039b565b5060208201516103d4602085018261039b565b5060408201516103e7604085018261039b565b5060608201516103fa606085018261039b565b50608082015161040d608085018261039b565b5060a082015161042060a085018261039b565b5060c082015161043360c085018261039b565b5060e082015161044660e085018261039b565b50505050565b60006101008201905061046260008301846103aa565b92915050565b61047181610338565b82525050565b60006101008201905061048d600083018b610468565b61049a602083018a610468565b6104a76040830189610468565b6104b46060830188610468565b6104c16080830187610468565b6104ce60a0830186610468565b6104db60c0830185610468565b6104e860e0830184610468565b9998505050505050505050565b600080600080600080600060e0888a03121561051457610513610333565b5b60006105228a828b01610359565b97505060206105338a828b01610359565b96505060406105448a828b01610359565b95505060606105558a828b01610359565b94505060806105668a828b01610359565b93505060a06105778a828b01610359565b92505060c06105888a828b01610359565b91505092959891949750929550565b60006020820190506105ac6000830184610468565b92915050565b7f4e487b7100000000000000000000000000000000000000000000000000000000600052603260045260246000fdfea26469706673582212206259a2cc16256deaa4fb90545b3c772d29852bf0630d69bee6e0c144031ca53b64736f6c63430008130033",
  "linkReferences": {},
  "deployedLinkReferences": {}
}