{
  "_format": "hh-sol-artifact-1",
  "contractName": "ScoreBoard",
  "sourceName": "contracts/ScoreBoard.sol",
  "abi": [
    {
      "anonymous": false,
      "inputs": [
        {
          "indexed": true,
          "internalType": "address",
          "name": "user",
          "type": "address"
        },
        {
          "indexed": false,
          "internalType": "uint256",
          "name": "tournamentId",
          "type": "uint256"
        },
        {
          "indexed": false,
          "internalType": "uint256",
          "name": "score",
          "type": "uint256"
        }
      ],
      "name": "ScorePosted",
      "type": "event"
    },
    {
      "inputs": [
        {
          "internalType": "address",
          "name": "user",
          "type": "address"
        }
      ],
      "name": "getScores",
      "outputs": [
        {
          "components": [
            {
              "internalType": "uint256",
              "name": "tournamentId",
              "type": "uint256"
            },
            {
              "internalType": "uint256",
              "name": "score",
              "type": "uint256"
            }
          ],
          "internalType": "struct ScoreBoard.Score[]",
          "name": "",
          "type": "tuple[]"
        }
      ],
      "stateMutability": "view",
      "type": "function"
    },
    {
      "inputs": [
        {
          "internalType": "uint256",
          "name": "tournamentId",
          "type": "uint256"
        },
        {
          "internalType": "uint256",
          "name": "score",
          "type": "uint256"
        }
      ],
      "name": "postScore",
      "outputs": [],
      "stateMutability": "nonpayable",
      "type": "function"
    },
    {
      "inputs": [
        {
          "internalType": "address",
          "name": "",
          "type": "address"
        },
        {
          "internalType": "uint256",
          "name": "",
          "type": "uint256"
        }
      ],
      "name": "userScores",
      "outputs": [
        {
          "internalType": "uint256",
          "name": "tournamentId",
          "type": "uint256"
        },
        {
          "internalType": "uint256",
          "name": "score",
          "type": "uint256"
        }
      ],
      "stateMutability": "view",
      "type": "function"
    }
  ],
  "bytecode": "0x608060405234801561001057600080fd5b5061055e806100206000396000f3fe608060405234801561001057600080fd5b50600436106100415760003560e01c8063506c14cd146100465780635b680a4514610062578063c5c2e2e614610093575b600080fd5b610060600480360381019061005b91906102d6565b6100c3565b005b61007c60048036038101906100779190610374565b6101a9565b60405161008a9291906103c3565b60405180910390f35b6100ad60048036038101906100a891906103ec565b6101ea565b6040516100ba9190610506565b60405180910390f35b6000803373ffffffffffffffffffffffffffffffffffffffff1673ffffffffffffffffffffffffffffffffffffffff1681526020019081526020016000206040518060400160405280848152602001838152509080600181540180825580915050600190039060005260206000209060020201600090919091909150600082015181600001556020820151816001015550503373ffffffffffffffffffffffffffffffffffffffff167ff3af1e0a29dbd3c7c981d8e7898d8020ecd1003ec7db6624345f5726a6340371838360405161019d9291906103c3565b60405180910390a25050565b600060205281600052604060002081815481106101c557600080fd5b9060005260206000209060020201600091509150508060000154908060010154905082565b60606000808373ffffffffffffffffffffffffffffffffffffffff1673ffffffffffffffffffffffffffffffffffffffff168152602001908152602001600020805480602002602001604051908101604052809291908181526020016000905b828210156102905783829060005260206000209060020201604051806040016040529081600082015481526020016001820154815250508152602001906001019061024a565b505050509050919050565b600080fd5b6000819050919050565b6102b3816102a0565b81146102be57600080fd5b50565b6000813590506102d0816102aa565b92915050565b600080604083850312156102ed576102ec61029b565b5b60006102fb858286016102c1565b925050602061030c858286016102c1565b9150509250929050565b600073ffffffffffffffffffffffffffffffffffffffff82169050919050565b600061034182610316565b9050919050565b61035181610336565b811461035c57600080fd5b50565b60008135905061036e81610348565b92915050565b6000806040838503121561038b5761038a61029b565b5b60006103998582860161035f565b92505060206103aa858286016102c1565b9150509250929050565b6103bd816102a0565b82525050565b60006040820190506103d860008301856103b4565b6103e560208301846103b4565b9392505050565b6000602082840312156104025761040161029b565b5b60006104108482850161035f565b91505092915050565b600081519050919050565b600082825260208201905092915050565b6000819050602082019050919050565b61044e816102a0565b82525050565b60408201600082015161046a6000850182610445565b50602082015161047d6020850182610445565b50505050565b600061048f8383610454565b60408301905092915050565b6000602082019050919050565b60006104b382610419565b6104bd8185610424565b93506104c883610435565b8060005b838110156104f95781516104e08882610483565b97506104eb8361049b565b9250506001810190506104cc565b5085935050505092915050565b6000602082019050818103600083015261052081846104a8565b90509291505056fea26469706673582212200435f8f474f25b2f343f4339eaf3ea1baa697d08e24cad1d6d1c79fcb6ed119c64736f6c63430008130033",
  "linkReferences": {},
  "deployedLinkReferences": {}
}