{
  "_format": "hh-sol-artifact-1",
  "contractName": "TournamentScore",
  "sourceName": "contracts/TournamentScore.sol",
  "abi": [
    {
      "anonymous": false,
      "inputs": [
        {
          "indexed": true,
          "internalType": "address",
          "name": "player",
          "type": "address"
        },
        {
          "indexed": false,
          "internalType": "uint256",
          "name": "tournamentId",
          "type": "uint256"
        },
        {
          "indexed": false,
          "internalType": "uint256",
          "name": "score",
          "type": "uint256"
        }
      ],
      "name": "ScoreAdded",
      "type": "event"
    },
    {
      "inputs": [
        {
          "internalType": "uint256",
          "name": "tournamentId",
          "type": "uint256"
        },
        {
          "internalType": "uint256",
          "name": "score",
          "type": "uint256"
        }
      ],
      "name": "addScore",
      "outputs": [],
      "stateMutability": "nonpayable",
      "type": "function"
    },
    {
      "inputs": [],
      "name": "getAllScores",
      "outputs": [
        {
          "components": [
            {
              "internalType": "address",
              "name": "player",
              "type": "address"
            },
            {
              "internalType": "uint256",
              "name": "tournamentId",
              "type": "uint256"
            },
            {
              "internalType": "uint256",
              "name": "score",
              "type": "uint256"
            }
          ],
          "internalType": "struct TournamentScore.Score[]",
          "name": "",
          "type": "tuple[]"
        }
      ],
      "stateMutability": "view",
      "type": "function"
    },
    {
      "inputs": [
        {
          "internalType": "uint256",
          "name": "index",
          "type": "uint256"
        }
      ],
      "name": "getScore",
      "outputs": [
        {
          "internalType": "address",
          "name": "",
          "type": "address"
        },
        {
          "internalType": "uint256",
          "name": "",
          "type": "uint256"
        },
        {
          "internalType": "uint256",
          "name": "",
          "type": "uint256"
        }
      ],
      "stateMutability": "view",
      "type": "function"
    },
    {
      "inputs": [
        {
          "internalType": "uint256",
          "name": "",
          "type": "uint256"
        }
      ],
      "name": "scores",
      "outputs": [
        {
          "internalType": "address",
          "name": "player",
          "type": "address"
        },
        {
          "internalType": "uint256",
          "name": "tournamentId",
          "type": "uint256"
        },
        {
          "internalType": "uint256",
          "name": "score",
          "type": "uint256"
        }
      ],
      "stateMutability": "view",
      "type": "function"
    }
  ],
  "bytecode": "0x6080604052348015600f57600080fd5b506106c98061001f6000396000f3fe608060405234801561001057600080fd5b506004361061004c5760003560e01c80630e1af57b146100515780632ee691a31461008357806387d06196146100b5578063ddcbf794146100d3575b600080fd5b61006b60048036038101906100669190610416565b6100ef565b60405161007a93929190610493565b60405180910390f35b61009d60048036038101906100989190610416565b6101ab565b6040516100ac93929190610493565b60405180910390f35b6100bd610205565b6040516100ca91906105d9565b60405180910390f35b6100ed60048036038101906100e891906105fb565b6102ce565b005b600080600080600085815481106101095761010861063b565b5b90600052602060002090600302016040518060600160405290816000820160009054906101000a900473ffffffffffffffffffffffffffffffffffffffff1673ffffffffffffffffffffffffffffffffffffffff1673ffffffffffffffffffffffffffffffffffffffff168152602001600182015481526020016002820154815250509050806000015181602001518260400151935093509350509193909250565b600081815481106101bb57600080fd5b90600052602060002090600302016000915090508060000160009054906101000a900473ffffffffffffffffffffffffffffffffffffffff16908060010154908060020154905083565b60606000805480602002602001604051908101604052809291908181526020016000905b828210156102c557838290600052602060002090600302016040518060600160405290816000820160009054906101000a900473ffffffffffffffffffffffffffffffffffffffff1673ffffffffffffffffffffffffffffffffffffffff1673ffffffffffffffffffffffffffffffffffffffff1681526020016001820154815260200160028201548152505081526020019060010190610229565b50505050905090565b600060405180606001604052803373ffffffffffffffffffffffffffffffffffffffff16815260200184815260200183815250908060018154018082558091505060019003906000526020600020906003020160009091909190915060008201518160000160006101000a81548173ffffffffffffffffffffffffffffffffffffffff021916908373ffffffffffffffffffffffffffffffffffffffff160217905550602082015181600101556040820151816002015550503373ffffffffffffffffffffffffffffffffffffffff167f83534a5108af10022a80fb6f89749ec76d5d14ac730fc855e712bf8b0886100483836040516103cf92919061066a565b60405180910390a25050565b600080fd5b6000819050919050565b6103f3816103e0565b81146103fe57600080fd5b50565b600081359050610410816103ea565b92915050565b60006020828403121561042c5761042b6103db565b5b600061043a84828501610401565b91505092915050565b600073ffffffffffffffffffffffffffffffffffffffff82169050919050565b600061046e82610443565b9050919050565b61047e81610463565b82525050565b61048d816103e0565b82525050565b60006060820190506104a86000830186610475565b6104b56020830185610484565b6104c26040830184610484565b949350505050565b600081519050919050565b600082825260208201905092915050565b6000819050602082019050919050565b6104ff81610463565b82525050565b61050e816103e0565b82525050565b60608201600082015161052a60008501826104f6565b50602082015161053d6020850182610505565b5060408201516105506040850182610505565b50505050565b60006105628383610514565b60608301905092915050565b6000602082019050919050565b6000610586826104ca565b61059081856104d5565b935061059b836104e6565b8060005b838110156105cc5781516105b38882610556565b97506105be8361056e565b92505060018101905061059f565b5085935050505092915050565b600060208201905081810360008301526105f3818461057b565b905092915050565b60008060408385031215610612576106116103db565b5b600061062085828601610401565b925050602061063185828601610401565b9150509250929050565b7f4e487b7100000000000000000000000000000000000000000000000000000000600052603260045260246000fd5b600060408201905061067f6000830185610484565b61068c6020830184610484565b939250505056fea264697066735822122010d6ddc0651dec33f7b8448e97b962697ac0de392d2db4836df1776fbea1f42364736f6c634300081c0033",
  "linkReferences": {},
  "deployedLinkReferences": {}
}