{"contracts/ScoreBoard.sol":{"ScoreBoard":{"abi":[{"anonymous":false,"inputs":[{"indexed":true,"internalType":"address","name":"user","type":"address"},{"indexed":false,"internalType":"uint256","name":"tournamentId","type":"uint256"},{"indexed":false,"internalType":"uint256","name":"score","type":"uint256"}],"name":"ScorePosted","type":"event"},{"inputs":[{"internalType":"address","name":"user","type":"address"}],"name":"getScores","outputs":[{"components":[{"internalType":"uint256","name":"tournamentId","type":"uint256"},{"internalType":"uint256","name":"score","type":"uint256"}],"internalType":"struct ScoreBoard.Score[]","name":"","type":"tuple[]"}],"stateMutability":"view","type":"function"},{"inputs":[{"internalType":"uint256","name":"tournamentId","type":"uint256"},{"internalType":"uint256","name":"score","type":"uint256"}],"name":"postScore","outputs":[],"stateMutability":"nonpayable","type":"function"},{"inputs":[{"internalType":"address","name":"","type":"address"},{"internalType":"uint256","name":"","type":"uint256"}],"name":"userScores","outputs":[{"internalType":"uint256","name":"tournamentId","type":"uint256"},{"internalType":"uint256","name":"score","type":"uint256"}],"stateMutability":"view","type":"function"}],"evm":{"bytecode":{"linkReferences":{},"object":"608060405234801561001057600080fd5b5061055e806100206000396000f3fe608060405234801561001057600080fd5b50600436106100415760003560e01c8063506c14cd146100465780635b680a4514610062578063c5c2e2e614610093575b600080fd5b610060600480360381019061005b91906102d6565b6100c3565b005b61007c60048036038101906100779190610374565b6101a9565b60405161008a9291906103c3565b60405180910390f35b6100ad60048036038101906100a891906103ec565b6101ea565b6040516100ba9190610506565b60405180910390f35b6000803373ffffffffffffffffffffffffffffffffffffffff1673ffffffffffffffffffffffffffffffffffffffff1681526020019081526020016000206040518060400160405280848152602001838152509080600181540180825580915050600190039060005260206000209060020201600090919091909150600082015181600001556020820151816001015550503373ffffffffffffffffffffffffffffffffffffffff167ff3af1e0a29dbd3c7c981d8e7898d8020ecd1003ec7db6624345f5726a6340371838360405161019d9291906103c3565b60405180910390a25050565b600060205281600052604060002081815481106101c557600080fd5b9060005260206000209060020201600091509150508060000154908060010154905082565b60606000808373ffffffffffffffffffffffffffffffffffffffff1673ffffffffffffffffffffffffffffffffffffffff168152602001908152602001600020805480602002602001604051908101604052809291908181526020016000905b828210156102905783829060005260206000209060020201604051806040016040529081600082015481526020016001820154815250508152602001906001019061024a565b505050509050919050565b600080fd5b6000819050919050565b6102b3816102a0565b81146102be57600080fd5b50565b6000813590506102d0816102aa565b92915050565b600080604083850312156102ed576102ec61029b565b5b60006102fb858286016102c1565b925050602061030c858286016102c1565b9150509250929050565b600073ffffffffffffffffffffffffffffffffffffffff82169050919050565b600061034182610316565b9050919050565b61035181610336565b811461035c57600080fd5b50565b60008135905061036e81610348565b92915050565b6000806040838503121561038b5761038a61029b565b5b60006103998582860161035f565b92505060206103aa858286016102c1565b9150509250929050565b6103bd816102a0565b82525050565b60006040820190506103d860008301856103b4565b6103e560208301846103b4565b9392505050565b6000602082840312156104025761040161029b565b5b60006104108482850161035f565b91505092915050565b600081519050919050565b600082825260208201905092915050565b6000819050602082019050919050565b61044e816102a0565b82525050565b60408201600082015161046a6000850182610445565b50602082015161047d6020850182610445565b50505050565b600061048f8383610454565b60408301905092915050565b6000602082019050919050565b60006104b382610419565b6104bd8185610424565b93506104c883610435565b8060005b838110156104f95781516104e08882610483565b97506104eb8361049b565b9250506001810190506104cc565b5085935050505092915050565b6000602082019050818103600083015261052081846104a8565b90509291505056fea26469706673582212200435f8f474f25b2f343f4339eaf3ea1baa697d08e24cad1d6d1c79fcb6ed119c64736f6c63430008130033","opcodes":"PUSH1 0x80 PUSH1 0x40 MSTORE CALLVALUE DUP1 ISZERO PUSH2 0x10 JUMPI PUSH1 0x0 DUP1 REVERT JUMPDEST POP PUSH2 0x55E DUP1 PUSH2 0x20 PUSH1 0x0 CODECOPY PUSH1 0x0 RETURN INVALID PUSH1 0x80 PUSH1 0x40 MSTORE CALLVALUE DUP1 ISZERO PUSH2 0x10 JUMPI PUSH1 0x0 DUP1 REVERT JUMPDEST POP PUSH1 0x4 CALLDATASIZE LT PUSH2 0x41 JUMPI PUSH1 0x0 CALLDATALOAD PUSH1 0xE0 SHR DUP1 PUSH4 0x506C14CD EQ PUSH2 0x46 JUMPI DUP1 PUSH4 0x5B680A45 EQ PUSH2 0x62 JUMPI DUP1 PUSH4 0xC5C2E2E6 EQ PUSH2 0x93 JUMPI JUMPDEST PUSH1 0x0 DUP1 REVERT JUMPDEST PUSH2 0x60 PUSH1 0x4 DUP1 CALLDATASIZE SUB DUP2 ADD SWAP1 PUSH2 0x5B SWAP2 SWAP1 PUSH2 0x2D6 JUMP JUMPDEST PUSH2 0xC3 JUMP JUMPDEST STOP JUMPDEST PUSH2 0x7C PUSH1 0x4 DUP1 CALLDATASIZE SUB DUP2 ADD SWAP1 PUSH2 0x77 SWAP2 SWAP1 PUSH2 0x374 JUMP JUMPDEST PUSH2 0x1A9 JUMP JUMPDEST PUSH1 0x40 MLOAD PUSH2 0x8A SWAP3 SWAP2 SWAP1 PUSH2 0x3C3 JUMP JUMPDEST PUSH1 0x40 MLOAD DUP1 SWAP2 SUB SWAP1 RETURN JUMPDEST PUSH2 0xAD PUSH1 0x4 DUP1 CALLDATASIZE SUB DUP2 ADD SWAP1 PUSH2 0xA8 SWAP2 SWAP1 PUSH2 0x3EC JUMP JUMPDEST PUSH2 0x1EA JUMP JUMPDEST PUSH1 0x40 MLOAD PUSH2 0xBA SWAP2 SWAP1 PUSH2 0x506 JUMP JUMPDEST PUSH1 0x40 MLOAD DUP1 SWAP2 SUB SWAP1 RETURN JUMPDEST PUSH1 0x0 DUP1 CALLER PUSH20 0xFFFFFFFFFFFFFFFFFFFFFFFFFFFFFFFFFFFFFFFF AND PUSH20 0xFFFFFFFFFFFFFFFFFFFFFFFFFFFFFFFFFFFFFFFF AND DUP2 MSTORE PUSH1 0x20 ADD SWAP1 DUP2 MSTORE PUSH1 0x20 ADD PUSH1 0x0 KECCAK256 PUSH1 0x40 MLOAD DUP1 PUSH1 0x40 ADD PUSH1 0x40 MSTORE DUP1 DUP5 DUP2 MSTORE PUSH1 0x20 ADD DUP4 DUP2 MSTORE POP SWAP1 DUP1 PUSH1 0x1 DUP2 SLOAD ADD DUP1 DUP3 SSTORE DUP1 SWAP2 POP POP PUSH1 0x1 SWAP1 SUB SWAP1 PUSH1 0x0 MSTORE PUSH1 0x20 PUSH1 0x0 KECCAK256 SWAP1 PUSH1 0x2 MUL ADD PUSH1 0x0 SWAP1 SWAP2 SWAP1 SWAP2 SWAP1 SWAP2 POP PUSH1 0x0 DUP3 ADD MLOAD DUP2 PUSH1 0x0 ADD SSTORE PUSH1 0x20 DUP3 ADD MLOAD DUP2 PUSH1 0x1 ADD SSTORE POP POP CALLER PUSH20 0xFFFFFFFFFFFFFFFFFFFFFFFFFFFFFFFFFFFFFFFF AND PUSH32 0xF3AF1E0A29DBD3C7C981D8E7898D8020ECD1003EC7DB6624345F5726A6340371 DUP4 DUP4 PUSH1 0x40 MLOAD PUSH2 0x19D SWAP3 SWAP2 SWAP1 PUSH2 0x3C3 JUMP JUMPDEST PUSH1 0x40 MLOAD DUP1 SWAP2 SUB SWAP1 LOG2 POP POP JUMP JUMPDEST PUSH1 0x0 PUSH1 0x20 MSTORE DUP2 PUSH1 0x0 MSTORE PUSH1 0x40 PUSH1 0x0 KECCAK256 DUP2 DUP2 SLOAD DUP2 LT PUSH2 0x1C5 JUMPI PUSH1 0x0 DUP1 REVERT JUMPDEST SWAP1 PUSH1 0x0 MSTORE PUSH1 0x20 PUSH1 0x0 KECCAK256 SWAP1 PUSH1 0x2 MUL ADD PUSH1 0x0 SWAP2 POP SWAP2 POP POP DUP1 PUSH1 0x0 ADD SLOAD SWAP1 DUP1 PUSH1 0x1 ADD SLOAD SWAP1 POP DUP3 JUMP JUMPDEST PUSH1 0x60 PUSH1 0x0 DUP1 DUP4 PUSH20 0xFFFFFFFFFFFFFFFFFFFFFFFFFFFFFFFFFFFFFFFF AND PUSH20 0xFFFFFFFFFFFFFFFFFFFFFFFFFFFFFFFFFFFFFFFF AND DUP2 MSTORE PUSH1 0x20 ADD SWAP1 DUP2 MSTORE PUSH1 0x20 ADD PUSH1 0x0 KECCAK256 DUP1 SLOAD DUP1 PUSH1 0x20 MUL PUSH1 0x20 ADD PUSH1 0x40 MLOAD SWAP1 DUP2 ADD PUSH1 0x40 MSTORE DUP1 SWAP3 SWAP2 SWAP1 DUP2 DUP2 MSTORE PUSH1 0x20 ADD PUSH1 0x0 SWAP1 JUMPDEST DUP3 DUP3 LT ISZERO PUSH2 0x290 JUMPI DUP4 DUP3 SWAP1 PUSH1 0x0 MSTORE PUSH1 0x20 PUSH1 0x0 KECCAK256 SWAP1 PUSH1 0x2 MUL ADD PUSH1 0x40 MLOAD DUP1 PUSH1 0x40 ADD PUSH1 0x40 MSTORE SWAP1 DUP2 PUSH1 0x0 DUP3 ADD SLOAD DUP2 MSTORE PUSH1 0x20 ADD PUSH1 0x1 DUP3 ADD SLOAD DUP2 MSTORE POP POP DUP2 MSTORE PUSH1 0x20 ADD SWAP1 PUSH1 0x1 ADD SWAP1 PUSH2 0x24A JUMP JUMPDEST POP POP POP POP SWAP1 POP SWAP2 SWAP1 POP JUMP JUMPDEST PUSH1 0x0 DUP1 REVERT JUMPDEST PUSH1 0x0 DUP2 SWAP1 POP SWAP2 SWAP1 POP JUMP JUMPDEST PUSH2 0x2B3 DUP2 PUSH2 0x2A0 JUMP JUMPDEST DUP2 EQ PUSH2 0x2BE JUMPI PUSH1 0x0 DUP1 REVERT JUMPDEST POP JUMP JUMPDEST PUSH1 0x0 DUP2 CALLDATALOAD SWAP1 POP PUSH2 0x2D0 DUP2 PUSH2 0x2AA JUMP JUMPDEST SWAP3 SWAP2 POP POP JUMP JUMPDEST PUSH1 0x0 DUP1 PUSH1 0x40 DUP4 DUP6 SUB SLT ISZERO PUSH2 0x2ED JUMPI PUSH2 0x2EC PUSH2 0x29B JUMP JUMPDEST JUMPDEST PUSH1 0x0 PUSH2 0x2FB DUP6 DUP3 DUP7 ADD PUSH2 0x2C1 JUMP JUMPDEST SWAP3 POP POP PUSH1 0x20 PUSH2 0x30C DUP6 DUP3 DUP7 ADD PUSH2 0x2C1 JUMP JUMPDEST SWAP2 POP POP SWAP3 POP SWAP3 SWAP1 POP JUMP JUMPDEST PUSH1 0x0 PUSH20 0xFFFFFFFFFFFFFFFFFFFFFFFFFFFFFFFFFFFFFFFF DUP3 AND SWAP1 POP SWAP2 SWAP1 POP JUMP JUMPDEST PUSH1 0x0 PUSH2 0x341 DUP3 PUSH2 0x316 JUMP JUMPDEST SWAP1 POP SWAP2 SWAP1 POP JUMP JUMPDEST PUSH2 0x351 DUP2 PUSH2 0x336 JUMP JUMPDEST DUP2 EQ PUSH2 0x35C JUMPI PUSH1 0x0 DUP1 REVERT JUMPDEST POP JUMP JUMPDEST PUSH1 0x0 DUP2 CALLDATALOAD SWAP1 POP PUSH2 0x36E DUP2 PUSH2 0x348 JUMP JUMPDEST SWAP3 SWAP2 POP POP JUMP JUMPDEST PUSH1 0x0 DUP1 PUSH1 0x40 DUP4 DUP6 SUB SLT ISZERO PUSH2 0x38B JUMPI PUSH2 0x38A PUSH2 0x29B JUMP JUMPDEST JUMPDEST PUSH1 0x0 PUSH2 0x399 DUP6 DUP3 DUP7 ADD PUSH2 0x35F JUMP JUMPDEST SWAP3 POP POP PUSH1 0x20 PUSH2 0x3AA DUP6 DUP3 DUP7 ADD PUSH2 0x2C1 JUMP JUMPDEST SWAP2 POP POP SWAP3 POP SWAP3 SWAP1 POP JUMP JUMPDEST PUSH2 0x3BD DUP2 PUSH2 0x2A0 JUMP JUMPDEST DUP3 MSTORE POP POP JUMP JUMPDEST PUSH1 0x0 PUSH1 0x40 DUP3 ADD SWAP1 POP PUSH2 0x3D8 PUSH1 0x0 DUP4 ADD DUP6 PUSH2 0x3B4 JUMP JUMPDEST PUSH2 0x3E5 PUSH1 0x20 DUP4 ADD DUP5 PUSH2 0x3B4 JUMP JUMPDEST SWAP4 SWAP3 POP POP POP JUMP JUMPDEST PUSH1 0x0 PUSH1 0x20 DUP3 DUP5 SUB SLT ISZERO PUSH2 0x402 JUMPI PUSH2 0x401 PUSH2 0x29B JUMP JUMPDEST JUMPDEST PUSH1 0x0 PUSH2 0x410 DUP5 DUP3 DUP6 ADD PUSH2 0x35F JUMP JUMPDEST SWAP2 POP POP SWAP3 SWAP2 POP POP JUMP JUMPDEST PUSH1 0x0 DUP2 MLOAD SWAP1 POP SWAP2 SWAP1 POP JUMP JUMPDEST PUSH1 0x0 DUP3 DUP3 MSTORE PUSH1 0x20 DUP3 ADD SWAP1 POP SWAP3 SWAP2 POP POP JUMP JUMPDEST PUSH1 0x0 DUP2 SWAP1 POP PUSH1 0x20 DUP3 ADD SWAP1 POP SWAP2 SWAP1 POP JUMP JUMPDEST PUSH2 0x44E DUP2 PUSH2 0x2A0 JUMP JUMPDEST DUP3 MSTORE POP POP JUMP JUMPDEST PUSH1 0x40 DUP3 ADD PUSH1 0x0 DUP3 ADD MLOAD PUSH2 0x46A PUSH1 0x0 DUP6 ADD DUP3 PUSH2 0x445 JUMP JUMPDEST POP PUSH1 0x20 DUP3 ADD MLOAD PUSH2 0x47D PUSH1 0x20 DUP6 ADD DUP3 PUSH2 0x445 JUMP JUMPDEST POP POP POP POP JUMP JUMPDEST PUSH1 0x0 PUSH2 0x48F DUP4 DUP4 PUSH2 0x454 JUMP JUMPDEST PUSH1 0x40 DUP4 ADD SWAP1 POP SWAP3 SWAP2 POP POP JUMP JUMPDEST PUSH1 0x0 PUSH1 0x20 DUP3 ADD SWAP1 POP SWAP2 SWAP1 POP JUMP JUMPDEST PUSH1 0x0 PUSH2 0x4B3 DUP3 PUSH2 0x419 JUMP JUMPDEST PUSH2 0x4BD DUP2 DUP6 PUSH2 0x424 JUMP JUMPDEST SWAP4 POP PUSH2 0x4C8 DUP4 PUSH2 0x435 JUMP JUMPDEST DUP1 PUSH1 0x0 JUMPDEST DUP4 DUP2 LT ISZERO PUSH2 0x4F9 JUMPI DUP2 MLOAD PUSH2 0x4E0 DUP9 DUP3 PUSH2 0x483 JUMP JUMPDEST SWAP8 POP PUSH2 0x4EB DUP4 PUSH2 0x49B JUMP JUMPDEST SWAP3 POP POP PUSH1 0x1 DUP2 ADD SWAP1 POP PUSH2 0x4CC JUMP JUMPDEST POP DUP6 SWAP4 POP POP POP POP SWAP3 SWAP2 POP POP JUMP JUMPDEST PUSH1 0x0 PUSH1 0x20 DUP3 ADD SWAP1 POP DUP2 DUP2 SUB PUSH1 0x0 DUP4 ADD MSTORE PUSH2 0x520 DUP2 DUP5 PUSH2 0x4A8 JUMP JUMPDEST SWAP1 POP SWAP3 SWAP2 POP POP JUMP INVALID LOG2 PUSH5 0x6970667358 0x22 SLT KECCAK256 DIV CALLDATALOAD 0xF8 DELEGATECALL PUSH21 0xF25B2F343F4339EAF3EA1BAA697D08E24CAD1D6D1C PUSH26 0xFCB6ED119C64736F6C6343000813003300000000000000000000 "},"methodIdentifiers":{"getScores(address)":"c5c2e2e6","postScore(uint256,uint256)":"506c14cd","userScores(address,uint256)":"5b680a45"}}}}}