{"contracts/ScoreBoard.sol":{"ScoreBoard":{"abi":[{"anonymous":false,"inputs":[{"indexed":false,"internalType":"uint256","name":"tournamentId","type":"uint256"},{"indexed":false,"internalType":"uint256","name":"matchId","type":"uint256"},{"indexed":false,"internalType":"uint256","name":"winnerId","type":"uint256"},{"indexed":false,"internalType":"uint256","name":"player1Id","type":"uint256"},{"indexed":false,"internalType":"uint256","name":"player2Id","type":"uint256"},{"indexed":false,"internalType":"uint256","name":"player1Score","type":"uint256"},{"indexed":false,"internalType":"uint256","name":"player2Score","type":"uint256"},{"indexed":false,"internalType":"uint256","name":"timestamp","type":"uint256"}],"name":"MatchPosted","type":"event"},{"inputs":[{"internalType":"uint256","name":"idx","type":"uint256"}],"name":"getMatch","outputs":[{"components":[{"internalType":"uint256","name":"tournamentId","type":"uint256"},{"internalType":"uint256","name":"matchId","type":"uint256"},{"internalType":"uint256","name":"player1Id","type":"uint256"},{"internalType":"uint256","name":"player2Id","type":"uint256"},{"internalType":"uint256","name":"player1Score","type":"uint256"},{"internalType":"uint256","name":"player2Score","type":"uint256"},{"internalType":"uint256","name":"winnerId","type":"uint256"},{"internalType":"uint256","name":"timestamp","type":"uint256"}],"internalType":"struct ScoreBoard.Match","name":"","type":"tuple"}],"stateMutability":"view","type":"function"},{"inputs":[],"name":"getMatchCount","outputs":[{"internalType":"uint256","name":"","type":"uint256"}],"stateMutability":"view","type":"function"},{"inputs":[{"internalType":"uint256","name":"","type":"uint256"}],"name":"matches","outputs":[{"internalType":"uint256","name":"tournamentId","type":"uint256"},{"internalType":"uint256","name":"matchId","type":"uint256"},{"internalType":"uint256","name":"player1Id","type":"uint256"},{"internalType":"uint256","name":"player2Id","type":"uint256"},{"internalType":"uint256","name":"player1Score","type":"uint256"},{"internalType":"uint256","name":"player2Score","type":"uint256"},{"internalType":"uint256","name":"winnerId","type":"uint256"},{"internalType":"uint256","name":"timestamp","type":"uint256"}],"stateMutability":"view","type":"function"},{"inputs":[{"internalType":"uint256","name":"tournamentId","type":"uint256"},{"internalType":"uint256","name":"matchId","type":"uint256"},{"internalType":"uint256","name":"player1Id","type":"uint256"},{"internalType":"uint256","name":"player2Id","type":"uint256"},{"internalType":"uint256","name":"player1Score","type":"uint256"},{"internalType":"uint256","name":"player2Score","type":"uint256"},{"internalType":"uint256","name":"winnerId","type":"uint256"}],"name":"postMatchResult","outputs":[],"stateMutability":"nonpayable","type":"function"}],"evm":{"bytecode":{"linkReferences":{},"object":"608060405234801561001057600080fd5b50610617806100206000396000f3fe608060405234801561001057600080fd5b506004361061004c5760003560e01c80633d092b3d146100515780634768d4ef146100815780636220ecfc146100b85780638c4f7dae146100d4575b600080fd5b61006b6004803603810190610066919061036e565b6100f2565b604051610078919061044c565b60405180910390f35b61009b6004803603810190610096919061036e565b61017f565b6040516100af989796959493929190610477565b60405180910390f35b6100d260048036038101906100cd91906104f5565b6101d7565b005b6100dc6102e2565b6040516100e99190610597565b60405180910390f35b6100fa6102ee565b6000828154811061010e5761010d6105b2565b5b906000526020600020906008020160405180610100016040529081600082015481526020016001820154815260200160028201548152602001600382015481526020016004820154815260200160058201548152602001600682015481526020016007820154815250509050919050565b6000818154811061018f57600080fd5b90600052602060002090600802016000915090508060000154908060010154908060020154908060030154908060040154908060050154908060060154908060070154905088565b60006040518061010001604052808981526020018881526020018781526020018681526020018581526020018481526020018381526020014281525090506000819080600181540180825580915050600190039060005260206000209060080201600090919091909150600082015181600001556020820151816001015560408201518160020155606082015181600301556080820151816004015560a0820151816005015560c0820151816006015560e0820151816007015550507f9e18ffef2f18bc8881648912a85950122379b946fbeb5822841ddb3f73b87ecc88888489898989426040516102d0989796959493929190610477565b60405180910390a15050505050505050565b60008080549050905090565b60405180610100016040528060008152602001600081526020016000815260200160008152602001600081526020016000815260200160008152602001600081525090565b600080fd5b6000819050919050565b61034b81610338565b811461035657600080fd5b50565b60008135905061036881610342565b92915050565b60006020828403121561038457610383610333565b5b600061039284828501610359565b91505092915050565b6103a481610338565b82525050565b610100820160008201516103c1600085018261039b565b5060208201516103d4602085018261039b565b5060408201516103e7604085018261039b565b5060608201516103fa606085018261039b565b50608082015161040d608085018261039b565b5060a082015161042060a085018261039b565b5060c082015161043360c085018261039b565b5060e082015161044660e085018261039b565b50505050565b60006101008201905061046260008301846103aa565b92915050565b61047181610338565b82525050565b60006101008201905061048d600083018b610468565b61049a602083018a610468565b6104a76040830189610468565b6104b46060830188610468565b6104c16080830187610468565b6104ce60a0830186610468565b6104db60c0830185610468565b6104e860e0830184610468565b9998505050505050505050565b600080600080600080600060e0888a03121561051457610513610333565b5b60006105228a828b01610359565b97505060206105338a828b01610359565b96505060406105448a828b01610359565b95505060606105558a828b01610359565b94505060806105668a828b01610359565b93505060a06105778a828b01610359565b92505060c06105888a828b01610359565b91505092959891949750929550565b60006020820190506105ac6000830184610468565b92915050565b7f4e487b7100000000000000000000000000000000000000000000000000000000600052603260045260246000fdfea26469706673582212206259a2cc16256deaa4fb90545b3c772d29852bf0630d69bee6e0c144031ca53b64736f6c63430008130033","opcodes":"PUSH1 0x80 PUSH1 0x40 MSTORE CALLVALUE DUP1 ISZERO PUSH2 0x10 JUMPI PUSH1 0x0 DUP1 REVERT JUMPDEST POP PUSH2 0x617 DUP1 PUSH2 0x20 PUSH1 0x0 CODECOPY PUSH1 0x0 RETURN INVALID PUSH1 0x80 PUSH1 0x40 MSTORE CALLVALUE DUP1 ISZERO PUSH2 0x10 JUMPI PUSH1 0x0 DUP1 REVERT JUMPDEST POP PUSH1 0x4 CALLDATASIZE LT PUSH2 0x4C JUMPI PUSH1 0x0 CALLDATALOAD PUSH1 0xE0 SHR DUP1 PUSH4 0x3D092B3D EQ PUSH2 0x51 JUMPI DUP1 PUSH4 0x4768D4EF EQ PUSH2 0x81 JUMPI DUP1 PUSH4 0x6220ECFC EQ PUSH2 0xB8 JUMPI DUP1 PUSH4 0x8C4F7DAE EQ PUSH2 0xD4 JUMPI JUMPDEST PUSH1 0x0 DUP1 REVERT JUMPDEST PUSH2 0x6B PUSH1 0x4 DUP1 CALLDATASIZE SUB DUP2 ADD SWAP1 PUSH2 0x66 SWAP2 SWAP1 PUSH2 0x36E JUMP JUMPDEST PUSH2 0xF2 JUMP JUMPDEST PUSH1 0x40 MLOAD PUSH2 0x78 SWAP2 SWAP1 PUSH2 0x44C JUMP JUMPDEST PUSH1 0x40 MLOAD DUP1 SWAP2 SUB SWAP1 RETURN JUMPDEST PUSH2 0x9B PUSH1 0x4 DUP1 CALLDATASIZE SUB DUP2 ADD SWAP1 PUSH2 0x96 SWAP2 SWAP1 PUSH2 0x36E JUMP JUMPDEST PUSH2 0x17F JUMP JUMPDEST PUSH1 0x40 MLOAD PUSH2 0xAF SWAP9 SWAP8 SWAP7 SWAP6 SWAP5 SWAP4 SWAP3 SWAP2 SWAP1 PUSH2 0x477 JUMP JUMPDEST PUSH1 0x40 MLOAD DUP1 SWAP2 SUB SWAP1 RETURN JUMPDEST PUSH2 0xD2 PUSH1 0x4 DUP1 CALLDATASIZE SUB DUP2 ADD SWAP1 PUSH2 0xCD SWAP2 SWAP1 PUSH2 0x4F5 JUMP JUMPDEST PUSH2 0x1D7 JUMP JUMPDEST STOP JUMPDEST PUSH2 0xDC PUSH2 0x2E2 JUMP JUMPDEST PUSH1 0x40 MLOAD PUSH2 0xE9 SWAP2 SWAP1 PUSH2 0x597 JUMP JUMPDEST PUSH1 0x40 MLOAD DUP1 SWAP2 SUB SWAP1 RETURN JUMPDEST PUSH2 0xFA PUSH2 0x2EE JUMP JUMPDEST PUSH1 0x0 DUP3 DUP2 SLOAD DUP2 LT PUSH2 0x10E JUMPI PUSH2 0x10D PUSH2 0x5B2 JUMP JUMPDEST JUMPDEST SWAP1 PUSH1 0x0 MSTORE PUSH1 0x20 PUSH1 0x0 KECCAK256 SWAP1 PUSH1 0x8 MUL ADD PUSH1 0x40 MLOAD DUP1 PUSH2 0x100 ADD PUSH1 0x40 MSTORE SWAP1 DUP2 PUSH1 0x0 DUP3 ADD SLOAD DUP2 MSTORE PUSH1 0x20 ADD PUSH1 0x1 DUP3 ADD SLOAD DUP2 MSTORE PUSH1 0x20 ADD PUSH1 0x2 DUP3 ADD SLOAD DUP2 MSTORE PUSH1 0x20 ADD PUSH1 0x3 DUP3 ADD SLOAD DUP2 MSTORE PUSH1 0x20 ADD PUSH1 0x4 DUP3 ADD SLOAD DUP2 MSTORE PUSH1 0x20 ADD PUSH1 0x5 DUP3 ADD SLOAD DUP2 MSTORE PUSH1 0x20 ADD PUSH1 0x6 DUP3 ADD SLOAD DUP2 MSTORE PUSH1 0x20 ADD PUSH1 0x7 DUP3 ADD SLOAD DUP2 MSTORE POP POP SWAP1 POP SWAP2 SWAP1 POP JUMP JUMPDEST PUSH1 0x0 DUP2 DUP2 SLOAD DUP2 LT PUSH2 0x18F JUMPI PUSH1 0x0 DUP1 REVERT JUMPDEST SWAP1 PUSH1 0x0 MSTORE PUSH1 0x20 PUSH1 0x0 KECCAK256 SWAP1 PUSH1 0x8 MUL ADD PUSH1 0x0 SWAP2 POP SWAP1 POP DUP1 PUSH1 0x0 ADD SLOAD SWAP1 DUP1 PUSH1 0x1 ADD SLOAD SWAP1 DUP1 PUSH1 0x2 ADD SLOAD SWAP1 DUP1 PUSH1 0x3 ADD SLOAD SWAP1 DUP1 PUSH1 0x4 ADD SLOAD SWAP1 DUP1 PUSH1 0x5 ADD SLOAD SWAP1 DUP1 PUSH1 0x6 ADD SLOAD SWAP1 DUP1 PUSH1 0x7 ADD SLOAD SWAP1 POP DUP9 JUMP JUMPDEST PUSH1 0x0 PUSH1 0x40 MLOAD DUP1 PUSH2 0x100 ADD PUSH1 0x40 MSTORE DUP1 DUP10 DUP2 MSTORE PUSH1 0x20 ADD DUP9 DUP2 MSTORE PUSH1 0x20 ADD DUP8 DUP2 MSTORE PUSH1 0x20 ADD DUP7 DUP2 MSTORE PUSH1 0x20 ADD DUP6 DUP2 MSTORE PUSH1 0x20 ADD DUP5 DUP2 MSTORE PUSH1 0x20 ADD DUP4 DUP2 MSTORE PUSH1 0x20 ADD TIMESTAMP DUP2 MSTORE POP SWAP1 POP PUSH1 0x0 DUP2 SWAP1 DUP1 PUSH1 0x1 DUP2 SLOAD ADD DUP1 DUP3 SSTORE DUP1 SWAP2 POP POP PUSH1 0x1 SWAP1 SUB SWAP1 PUSH1 0x0 MSTORE PUSH1 0x20 PUSH1 0x0 KECCAK256 SWAP1 PUSH1 0x8 MUL ADD PUSH1 0x0 SWAP1 SWAP2 SWAP1 SWAP2 SWAP1 SWAP2 POP PUSH1 0x0 DUP3 ADD MLOAD DUP2 PUSH1 0x0 ADD SSTORE PUSH1 0x20 DUP3 ADD MLOAD DUP2 PUSH1 0x1 ADD SSTORE PUSH1 0x40 DUP3 ADD MLOAD DUP2 PUSH1 0x2 ADD SSTORE PUSH1 0x60 DUP3 ADD MLOAD DUP2 PUSH1 0x3 ADD SSTORE PUSH1 0x80 DUP3 ADD MLOAD DUP2 PUSH1 0x4 ADD SSTORE PUSH1 0xA0 DUP3 ADD MLOAD DUP2 PUSH1 0x5 ADD SSTORE PUSH1 0xC0 DUP3 ADD MLOAD DUP2 PUSH1 0x6 ADD SSTORE PUSH1 0xE0 DUP3 ADD MLOAD DUP2 PUSH1 0x7 ADD SSTORE POP POP PUSH32 0x9E18FFEF2F18BC8881648912A85950122379B946FBEB5822841DDB3F73B87ECC DUP9 DUP9 DUP5 DUP10 DUP10 DUP10 DUP10 TIMESTAMP PUSH1 0x40 MLOAD PUSH2 0x2D0 SWAP9 SWAP8 SWAP7 SWAP6 SWAP5 SWAP4 SWAP3 SWAP2 SWAP1 PUSH2 0x477 JUMP JUMPDEST PUSH1 0x40 MLOAD DUP1 SWAP2 SUB SWAP1 LOG1 POP POP POP POP POP POP POP POP JUMP JUMPDEST PUSH1 0x0 DUP1 DUP1 SLOAD SWAP1 POP SWAP1 POP SWAP1 JUMP JUMPDEST PUSH1 0x40 MLOAD DUP1 PUSH2 0x100 ADD PUSH1 0x40 MSTORE DUP1 PUSH1 0x0 DUP2 MSTORE PUSH1 0x20 ADD PUSH1 0x0 DUP2 MSTORE PUSH1 0x20 ADD PUSH1 0x0 DUP2 MSTORE PUSH1 0x20 ADD PUSH1 0x0 DUP2 MSTORE PUSH1 0x20 ADD PUSH1 0x0 DUP2 MSTORE PUSH1 0x20 ADD PUSH1 0x0 DUP2 MSTORE PUSH1 0x20 ADD PUSH1 0x0 DUP2 MSTORE PUSH1 0x20 ADD PUSH1 0x0 DUP2 MSTORE POP SWAP1 JUMP JUMPDEST PUSH1 0x0 DUP1 REVERT JUMPDEST PUSH1 0x0 DUP2 SWAP1 POP SWAP2 SWAP1 POP JUMP JUMPDEST PUSH2 0x34B DUP2 PUSH2 0x338 JUMP JUMPDEST DUP2 EQ PUSH2 0x356 JUMPI PUSH1 0x0 DUP1 REVERT JUMPDEST POP JUMP JUMPDEST PUSH1 0x0 DUP2 CALLDATALOAD SWAP1 POP PUSH2 0x368 DUP2 PUSH2 0x342 JUMP JUMPDEST SWAP3 SWAP2 POP POP JUMP JUMPDEST PUSH1 0x0 PUSH1 0x20 DUP3 DUP5 SUB SLT ISZERO PUSH2 0x384 JUMPI PUSH2 0x383 PUSH2 0x333 JUMP JUMPDEST JUMPDEST PUSH1 0x0 PUSH2 0x392 DUP5 DUP3 DUP6 ADD PUSH2 0x359 JUMP JUMPDEST SWAP2 POP POP SWAP3 SWAP2 POP POP JUMP JUMPDEST PUSH2 0x3A4 DUP2 PUSH2 0x338 JUMP JUMPDEST DUP3 MSTORE POP POP JUMP JUMPDEST PUSH2 0x100 DUP3 ADD PUSH1 0x0 DUP3 ADD MLOAD PUSH2 0x3C1 PUSH1 0x0 DUP6 ADD DUP3 PUSH2 0x39B JUMP JUMPDEST POP PUSH1 0x20 DUP3 ADD MLOAD PUSH2 0x3D4 PUSH1 0x20 DUP6 ADD DUP3 PUSH2 0x39B JUMP JUMPDEST POP PUSH1 0x40 DUP3 ADD MLOAD PUSH2 0x3E7 PUSH1 0x40 DUP6 ADD DUP3 PUSH2 0x39B JUMP JUMPDEST POP PUSH1 0x60 DUP3 ADD MLOAD PUSH2 0x3FA PUSH1 0x60 DUP6 ADD DUP3 PUSH2 0x39B JUMP JUMPDEST POP PUSH1 0x80 DUP3 ADD MLOAD PUSH2 0x40D PUSH1 0x80 DUP6 ADD DUP3 PUSH2 0x39B JUMP JUMPDEST POP PUSH1 0xA0 DUP3 ADD MLOAD PUSH2 0x420 PUSH1 0xA0 DUP6 ADD DUP3 PUSH2 0x39B JUMP JUMPDEST POP PUSH1 0xC0 DUP3 ADD MLOAD PUSH2 0x433 PUSH1 0xC0 DUP6 ADD DUP3 PUSH2 0x39B JUMP JUMPDEST POP PUSH1 0xE0 DUP3 ADD MLOAD PUSH2 0x446 PUSH1 0xE0 DUP6 ADD DUP3 PUSH2 0x39B JUMP JUMPDEST POP POP POP POP JUMP JUMPDEST PUSH1 0x0 PUSH2 0x100 DUP3 ADD SWAP1 POP PUSH2 0x462 PUSH1 0x0 DUP4 ADD DUP5 PUSH2 0x3AA JUMP JUMPDEST SWAP3 SWAP2 POP POP JUMP JUMPDEST PUSH2 0x471 DUP2 PUSH2 0x338 JUMP JUMPDEST DUP3 MSTORE POP POP JUMP JUMPDEST PUSH1 0x0 PUSH2 0x100 DUP3 ADD SWAP1 POP PUSH2 0x48D PUSH1 0x0 DUP4 ADD DUP12 PUSH2 0x468 JUMP JUMPDEST PUSH2 0x49A PUSH1 0x20 DUP4 ADD DUP11 PUSH2 0x468 JUMP JUMPDEST PUSH2 0x4A7 PUSH1 0x40 DUP4 ADD DUP10 PUSH2 0x468 JUMP JUMPDEST PUSH2 0x4B4 PUSH1 0x60 DUP4 ADD DUP9 PUSH2 0x468 JUMP JUMPDEST PUSH2 0x4C1 PUSH1 0x80 DUP4 ADD DUP8 PUSH2 0x468 JUMP JUMPDEST PUSH2 0x4CE PUSH1 0xA0 DUP4 ADD DUP7 PUSH2 0x468 JUMP JUMPDEST PUSH2 0x4DB PUSH1 0xC0 DUP4 ADD DUP6 PUSH2 0x468 JUMP JUMPDEST PUSH2 0x4E8 PUSH1 0xE0 DUP4 ADD DUP5 PUSH2 0x468 JUMP JUMPDEST SWAP10 SWAP9 POP POP POP POP POP POP POP POP POP JUMP JUMPDEST PUSH1 0x0 DUP1 PUSH1 0x0 DUP1 PUSH1 0x0 DUP1 PUSH1 0x0 PUSH1 0xE0 DUP9 DUP11 SUB SLT ISZERO PUSH2 0x514 JUMPI PUSH2 0x513 PUSH2 0x333 JUMP JUMPDEST JUMPDEST PUSH1 0x0 PUSH2 0x522 DUP11 DUP3 DUP12 ADD PUSH2 0x359 JUMP JUMPDEST SWAP8 POP POP PUSH1 0x20 PUSH2 0x533 DUP11 DUP3 DUP12 ADD PUSH2 0x359 JUMP JUMPDEST SWAP7 POP POP PUSH1 0x40 PUSH2 0x544 DUP11 DUP3 DUP12 ADD PUSH2 0x359 JUMP JUMPDEST SWAP6 POP POP PUSH1 0x60 PUSH2 0x555 DUP11 DUP3 DUP12 ADD PUSH2 0x359 JUMP JUMPDEST SWAP5 POP POP PUSH1 0x80 PUSH2 0x566 DUP11 DUP3 DUP12 ADD PUSH2 0x359 JUMP JUMPDEST SWAP4 POP POP PUSH1 0xA0 PUSH2 0x577 DUP11 DUP3 DUP12 ADD PUSH2 0x359 JUMP JUMPDEST SWAP3 POP POP PUSH1 0xC0 PUSH2 0x588 DUP11 DUP3 DUP12 ADD PUSH2 0x359 JUMP JUMPDEST SWAP2 POP POP SWAP3 SWAP6 SWAP9 SWAP2 SWAP5 SWAP8 POP SWAP3 SWAP6 POP JUMP JUMPDEST PUSH1 0x0 PUSH1 0x20 DUP3 ADD SWAP1 POP PUSH2 0x5AC PUSH1 0x0 DUP4 ADD DUP5 PUSH2 0x468 JUMP JUMPDEST SWAP3 SWAP2 POP POP JUMP JUMPDEST PUSH32 0x4E487B7100000000000000000000000000000000000000000000000000000000 PUSH1 0x0 MSTORE PUSH1 0x32 PUSH1 0x4 MSTORE PUSH1 0x24 PUSH1 0x0 REVERT INVALID LOG2 PUSH5 0x6970667358 0x22 SLT KECCAK256 PUSH3 0x59A2CC AND 0x25 PUSH14 0xEAA4FB90545B3C772D29852BF063 0xD PUSH10 0xBEE6E0C144031CA53B64 PUSH20 0x6F6C634300081300330000000000000000000000 "},"methodIdentifiers":{"getMatch(uint256)":"3d092b3d","getMatchCount()":"8c4f7dae","matches(uint256)":"4768d4ef","postMatchResult(uint256,uint256,uint256,uint256,uint256,uint256,uint256)":"6220ecfc"}}}}}